{
  "contractName": "MathOp",
  "abi": [
    {
      "constant": true,
      "inputs": [
        {
          "name": "x",
          "type": "uint256"
        },
        {
          "name": "y",
          "type": "uint256"
        }
      ],
      "name": "doSum",
      "outputs": [
        {
          "name": "sum",
          "type": "uint256"
        }
      ],
      "payable": false,
      "stateMutability": "view",
      "type": "function"
    },
    {
      "constant": true,
      "inputs": [
        {
          "name": "x",
          "type": "uint256"
        },
        {
          "name": "y",
          "type": "uint256"
        }
      ],
      "name": "doSub",
      "outputs": [
        {
          "name": "sub",
          "type": "uint256"
        }
      ],
      "payable": false,
      "stateMutability": "view",
      "type": "function"
    },
    {
      "constant": true,
      "inputs": [
        {
          "name": "x",
          "type": "uint256"
        },
        {
          "name": "y",
          "type": "uint256"
        }
      ],
      "name": "doMul",
      "outputs": [
        {
          "name": "mul",
          "type": "uint256"
        }
      ],
      "payable": false,
      "stateMutability": "view",
      "type": "function"
    }
  ],
  "bytecode": "0x6060604052341561000f57600080fd5b6101878061001e6000396000f300606060405260043610610057576000357c0100000000000000000000000000000000000000000000000000000000900463ffffffff16806330d47e2a1461005c5780636c7ac6371461009c578063fb119198146100dc575b600080fd5b341561006757600080fd5b610086600480803590602001909190803590602001909190505061011c565b6040518082815260200191505060405180910390f35b34156100a757600080fd5b6100c6600480803590602001909190803590602001909190505061012c565b6040518082815260200191505060405180910390f35b34156100e757600080fd5b610106600480803590602001909190803590602001909190505061014b565b6040518082815260200191505060405180910390f35b6000818301905080905092915050565b600081831015151561013d57600080fd5b818303905080905092915050565b60008183029050809050929150505600a165627a7a72305820750d33013b19f32f44f9d466aed3b89f43c5cccbb8b4498b0606066b46aeea7b0029",
  "source": "pragma solidity ^0.4.18;\r\n\r\ncontract MathOp {\r\n\tfunction doSum(uint256 x, uint256 y) constant returns (uint256 sum) {\r\n\t\tsum = x + y;\r\n\t\treturn sum;\r\n\t}\r\n\tfunction doSub(uint256 x, uint256 y) constant returns (uint256 sub) {\r\n\t\trequire(x >= y);\r\n\t\tsub = x - y;\r\n\t\treturn sub;\r\n\t}\r\n\tfunction doMul(uint256 x, uint256 y) constant returns (uint256 mul) {\r\n\t\tmul = x * y;\r\n\t\treturn mul;\r\n\t}\r\n}",
  "sourcePath": "E:\\Work\\TestCont\\contracts\\MathOp.sol",
  "compiler": {
    "name": "solc",
    "version": "0.4.18+commit.9cf6e910.Emscripten.clang"
  },
  "schemaVersion": "1.0.1",
  "updatedAt": "2018-01-16T13:24:50.900Z"
}